:1000000036C150C14FC14EC14DC14CC14BC14AC197
:1000100049C148C105C346C145C144C143C100AA45
:1000200055010D056541D151711115110E000000EA
:100030000000000000005F00000000070000070053
:10004000147F147F1400242A7F2A120023130864CB
:100050006200364955225000000503000000001CD4
:10006000224100000041221C0000082A1C2A08002E
:1000700008083E0808000020600000000808080882
:1000800008000060600000002010080402003E51DB
:1000900049453E0000427F40000062514949460008
:1000A0002241494936001814127F10002745454562
:1000B00039003C4A494930000171090503003649BD
:1000C00049493600064949291E000036360000001D
:1000D000002C6C00000008142241000014141414B9
:1000E000140041221408000002015109060032499F
:1000F00079413E007E0909097E007F494949360061
:100100003E41414122007F4141221C007F49494933
:1001100041007F09090901003E41415172007F08F9
:1001200008087F0000417F4100002040413F01005E
:100130007F08142241007F40404040007F020C02B3
:100140007F007F0408107F003E4141413E007F094F
:10015000090906003E4151215E007F091929460028
:1001600026494949320001017F0101003F404040DA
:100170003F001F2040201F003F4038403F006314D5
:1001800008146300070870080700615149454300DF
:10019000007F414100000204081020000041417F1F
:1001A0000000040201020400404040404000000101
:1001B000020400002054545478007F48444438001E
:1001C000384444442000384444487F003854545450
:1001D0001800087E0901020018A4A4A47C007F086E
:1001E0000404780000447D4000004080847D0000CD
:1001F0007F102844000000417F4000007C04080478
:1002000078007C0804047800384444443800FC2416
:100210002424180018242424FC007C08040408006A
:10022000485454542400043F444020003C404020A3
:100230007C001C2040201C003C4030403C004428F6
:10024000102844001CA0A0A07C004464544C44002E
:1002500000083641000000007F0000000041360821
:10026000000002010102010055AA55AA55AA112455
:100270001FBECFE5D2E0DEBFCDBF10E0A0E6B0E00C
:10028000ECE9F7E002C005900D92AE37B107D9F75F
:1002900020E0AEE7B0E001C01D92A13BB207E1F75C
:1002A00031D27AC2ADCE98E0C09887FF02C0C29A20
:1002B00001C0C298C09A880F9150B1F70895CF93AA
:1002C000DF931F92CDB7DEB7C1986983ECDF6981F8
:1002D000862FE9DFC19AC0980F90DF91CF910895E2
:1002E000EF92FF920F931F93CF93DF93CDB7DEB7BB
:1002F0002C970FB6F894DEBF0FBECDBF8CE0E4E6BE
:10030000F0E0DE01119601900D928A95E1F7B89A1E
:10031000B99ABA9A8E010F5F1F4F7E018DE0E80EE9
:10032000F11CF80161818081CADF0E5F1F4F0E153D
:100330001F05B9F72C960FB6F894DEBF0FBECDBFE0
:10034000DF91CF911F910F91FF90EF9008959FEF54
:10035000980F983008F4B3CF08950F931F93CF935D
:10036000DF931F92CDB7DEB78C016983B9DF10939D
:10037000AD000093AC0069816093AB000F90DF91FA
:10038000CF911F910F91089561E08EEF91E026C10A
:100390001F93CF93DF93D1E010E8C091AB00C8501A
:1003A000C198C7FD21C08D2F7EDF80E090E04C2FEB
:1003B0000C2E000C550B495F5F4FC098E091AC00CC
:1003C000F091AD009A01281B390BE20FF31F208139
:1003D000212311F0C29A01C0C298C09A01968830B8
:1003E000910559F7C850DDCFC19AC0981695DF5FC7
:1003F000D93099F6DF91CF911F910895C9CF90918F
:10040000AB00891778F4E091AC00F091AD00E80FF3
:10041000F11D81E090E001C0880F6A95EAF79081B4
:10042000892B808308959091AB00891780F4E09127
:10043000AC00F091AD00E80FF11D81E090E001C04B
:10044000880F6A95EAF780959081892380830895C3
:100450009091AB00891738F4E091AC00F091AD00B9
:10046000E80FF11D608308952091AC003091AD003C
:10047000F901E80FF11D808108958091AC00909101
:10048000AD004091AB0050E041505109BC016F5F9D
:100490007F4F79C17DCF882341F0E3ECF9E03197BC
:1004A000F1F700C000008150F6CF08959093B0009E
:1004B0008093AF006093AE0008950F931F93CF9386
:1004C000DF93182F062FC0E0D0E08091AE00202FE0
:1004D000281B30E0F901EE0FFF1FEE0FFF1F220F68
:1004E000331FE20FF31F9E012E0F3F1FE091AF005D
:1004F000F091B000E20FF31F64918C2F810FA8DF01
:100500002196C830D10509F7DF91CF911F910F9146
:100510000895CF92DF92EF92FF920F931F93CF93A4
:10052000DF931F92CDB7DEB7C82E8B017A01D12C95
:10053000F701ED0DF11DE00FF11F64918D2D8C0D74
:10054000298386DFD39429812D1590F70F90DF91B1
:10055000CF911F910F91FF90EF90DF90CF90089572
:10056000CF93DF93D62FC82FCC2329F086DF8D2F92
:1005700092DFC150F9CFDF91CF91089580E0909143
:10058000AB00891758F4E091AC00F091AD00E80F92
:10059000F11D9081909590838F5FF1CF0895CF9357
:1005A000DF93D62FC82FCC0FCC2329F0E7DF8D2F78
:1005B00072DFC150F9CFDF91CF91089590938C00F5
:1005C00080938B008AB582608ABD89B7806189BFBC
:1005D00008958093630060936200089520918200E3
:1005E0002F5F20938200243080F430E0F901EE0F79
:1005F000FF1FE557FF4F91838083F901E957FF4FB4
:100600006083F901ED57FF4F6083089578948091DE
:10061000620089BD93B780916300892B83BF0895E1
:100620001F920F920FB60F921124EF92FF920F9329
:100630001F932F933F934F935F936F937F938F936A
:100640009F93AF93BF93CF93DF93EF93FF938BE889
:10065000E82E80E0F82E03E810E0C0E0D0E0D701FB
:10066000ED91FD917D013097E9F0D8018C918111D8
:1006700016C0209751F460917E0070917F008091A8
:10068000800090918100099503C08EE790E0099564
:10069000FE01E957FF4F8081F801808303C081503C
:1006A000D8018C9321960F5F1F4FC430D105B9F646
:1006B00080917E0090917F00A0918000B091810098
:1006C0000196A11DB11D80937E0090937F00A093A1
:1006D0008000B0938100FF91EF91DF91CF91BF91A6
:1006E000AF919F918F917F916F915F914F913F91CA
:1006F0002F911F910F91FF90EF900F900FBE0F90D1
:100700001F90189580E090E059DF69E085E061DF97
:100710007DDF68E183E990E020DE36DE60E28EE294
:1007200090E0C4DEC0916000D091610069916623C1
:1007300031F080E1C2DE64E086E012DFF7CF28E02E
:1007400040E050E06EE170E080E1E3DE64E088E0EC
:1007500007DF28E048E050E06EE170E080E1D9DE9C
:1007600064E088E0FDDE8FEF99EF0197F1F700C0BC
:10077000000064E083E013DF8FEF99EF0197F1F75A
:1007800000C00000CFCFFB01DC0102C001900D9240
:0C07900041505040D8F70895F894FFCF76
:10079C007000610509000A010B070C010F00000035
:0E07AC0048656C6C6F2C20576F726C642100D6
:00000001FF
