:100000000EC028C027C026C025C024C023C022C0DF
:1000100021C020C038C11EC01DC01CC01BC011247F
:100020001FBECFE5D2E0DEBFCDBF10E0A0E6B0E05E
:10003000E8ECF3E002C005900D92AE36B107D9F7B7
:1000400020E0AEE6B0E001C01D92AE38B207E1F7A5
:100050008CD1B8C1D5CF98E0C09887FF02C0C29AB2
:1000600001C0C298C09A880F9150B1F70895CF93FC
:10007000C62FC198F0DF8C2FEEDFC19AC098CF91C8
:100080000895EF92FF920F931F93CF93DF93CDB715
:10009000DEB72C970FB6F894DEBF0FBECDBF8CE055
:1000A000E2E6F0E0DE01119601900D928A95E1F70B
:1000B000B89AB99ABA9A8E010F5F1F4F7E018DE0F0
:1000C000E80EF11CF80161818081D1DF0E5F1F4FC6
:1000D0000E151F05B9F72C960FB6F894DEBF0FBEAC
:1000E000CDBFDF91CF911F910F91FF90EF900895B9
:1000F0009FEF980F983008F4BACF08950F931F938D
:10010000CF938C01C62FBDDF10938D0000938C0020
:10011000C0938B00CF911F910F9108951F93CF93A0
:10012000DF93D1E010E8C0918B00C850C198C7FDA3
:1001300022C08D2F90DF20E030E04C2F0C2E000CE1
:10014000550B495F5F4FC098E0918C00F0918D0096
:10015000CA01821B930BE80FF91F8081812311F0E4
:10016000C29A01C0C298C09A2F5F3F4F2830310514
:1001700051F7C850DCCFC19AC0981695DF5FD930CF
:1001800091F6DF91CF911F91089590918B0089177F
:1001900078F4E0918C00F0918D00E80FF11D81E082
:1001A00090E001C0880F6A95EAF79081892B8083DF
:1001B000089590918B00891780F4E0918C00F09164
:1001C0008D00E80FF11D81E090E001C0880F6A9575
:1001D000EAF78095908189238083089590918B0020
:1001E000891738F4E0918C00F0918D00E80FF11D33
:1001F0006083089520918C0030918D00F901E80F03
:10020000F11D8081089580918C0090918D00409126
:100210008B0050E041505109BC016F5F7F4FC9C056
:100220007DCF90937C0080937B008AB582608ABDED
:1002300089B7806189BF08958093610060936000F1
:100240000895209172002F5F20937200243080F473
:1002500030E0F901EE0FFF1FE558FF4F91838083D7
:10026000F901E958FF4F6083F901ED58FF4F6083B2
:10027000089578948091600089BD93B78091610062
:10028000892B83BF08951F920F920FB60F921124EE
:10029000CF92DF92EF92FF921F932F933F934F9352
:1002A0005F936F937F938F939F93AF93BF93CF93FE
:1002B000DF93EF93FF938BE7C82E80E0D82E97E76C
:1002C000E92E90E0F92EC3E7D0E010E0D601ED91E1
:1002D000FD916D013097B9F08881811112C0111123
:1002E0000AC060916E0070916F00809170009091D3
:1002F0007100099503C08EE690E00995F7018081B1
:1003000001C0815088831F5FFFEFEF1AFF0A21961B
:100310001430E1F680916E0090916F00A091700012
:10032000B09171000196A11DB11D80936E00909354
:100330006F00A0937000B0937100FF91EF91DF9177
:10034000CF91BF91AF919F918F917F916F915F916D
:100350004F913F912F911F91FF90EF90DF90CF90A1
:100360000F900FBE0F901F90189580E090E059DF1E
:1003700069E085E061DF7DDF68E083E890E0BEDE74
:1003800061E080E191E05DDFD0E0C0E06D2F8C2F77
:10039000FCDE81EF9BE20197F1F700C000006D2FBA
:1003A0008C2F07DFCF5FC83089F7DF5FD83069F760
:1003B000EBCFFB01DC0102C001900D924150504097
:0803C000D8F70895F894FFCF6F
:0E03C800610509000A010B070C010F0000007F
:00000001FF
