:1000000014C02EC02DC02CC02BC02AC029C028C0AF
:1000100027C026C019C124C023C022C021C00900A6
:100020000A010B070C010F00000011241FBECFE5D1
:10003000D2E0DEBFCDBF10E0A0E6B0E0EAE6F3E03C
:1000400002C005900D92A236B107D9F720E0A2E6D2
:10005000B0E001C01D92AA37B207E1F767D183C1B2
:10006000CFCF98E0C29887FF02C0C19A01C0C19863
:10007000C29A880F9150B1F70895CF93C62FC098B8
:10008000F0DF8C2FEEDFC09AC298CF910895CF9306
:10009000DF93BA9AB89AB99ACEE1D0E0FE01849182
:1000A00031966491EADF2296F0E0CA32DF07B1F7B9
:1000B000DF91CF9108959FEF980F983008F4DDCF2E
:1000C00008950F931F93CF938C01C62FE0DF1093F9
:1000D000790000937800C0937700CF911F910F9122
:1000E00008951F93CF93DF93D1E010E8C09177007C
:1000F000C850C098C7FD1CC08D2FB3DF8C2F0C2EAD
:10010000000C990B079628E0C298E0917800F091D6
:100110007900E80FF91F3081312311F0C19A01C035
:10012000C198C29A215001972111EECFC850E2CF59
:10013000C09AC2981695DF5FD930C1F6DF91CF9192
:100140001F910895CECF90917700891778F4E091B0
:100150007800F0917900E80FF11D81E090E001C096
:10016000880F6A95EAF79081892B80830895909192
:100170007700891780F4E0917800F0917900E80F1A
:10018000F11D81E090E001C0880F6A95EAF7809543
:10019000908189238083089590917700891738F49E
:1001A000E0917800F0917900E80FF11D60830895E7
:1001B0002091780030917900F901E80FF11D8081DC
:1001C000089580917800909179004091770050E0F7
:1001D00041505109BC016F5F7F4FBCC061E082EAB2
:1001E00090E010C09093700080936F008AB5826099
:1001F0008ABD89B7806189BF08958093610060934B
:1002000060000895209166002F5F209366002430DF
:1002100080F430E0F901EE0FFF1FE159FF4F9183A9
:100220008083F901E559FF4F6083F901E959FF4FD8
:100230006083089578948091600089BD93B7809120
:100240006100892B83BF08951F920F920FB60F9202
:100250001124CF92DF92EF92FF921F932F933F933F
:100260004F935F936F937F938F939F93AF93BF93BE
:10027000CF93DF93EF93FF938FE6C82E80E0D82EC5
:100280009BE6E92E90E0F92EC7E6D0E010E0D6011B
:10029000ED91FD916D013097B9F08881811112C007
:1002A00011110AC060916200709163008091640036
:1002B00090916500099503C082E690E00995F701E9
:1002C000808101C0815088831F5FFFEFEF1AFF0A12
:1002D00021961430E1F68091620090916300A09124
:1002E0006400B09165000196A11DB11D809362006C
:1002F00090936300A0936400B0936500FF91EF9129
:10030000DF91CF91BF91AF919F918F917F916F912D
:100310005F914F913F912F911F91FF90EF90DF9050
:10032000CF900F900FBE0F901F901895B0DEC1E0D8
:1003300019E0D1E06D2F8C2FBEDEDD0F87EA91E64C
:100340000197F1F700C000001150A1F7CF5FC9304D
:1003500079F7EDCFFB01DC0102C001900D92415015
:0A0360005040D8F70895F894FFCF3D
:02036A0061052B
:00000001FF
