:1000000040C04FC04EC04DC04CC04BC04AC049C09C
:1000100048C047C046C045C044C043C042C00000BD
:1000200000008181C3C3E3E3C38100000103070F24
:100030001F8FC7E3F1F8F1E3C78F1F8FC7C381811B
:1000400000000008080818181808080800000081B7
:1000500081C3C381810000001010101818181010FF
:1000600011111110080808000081C3C7870F1F1F56
:100070001F8FC7C3810000FF00FF00FF00FF00FFCC
:1000800000FF11241FBECFE5D2E0DEBFCDBF10E0E0
:10009000A0E6B0E001C01D92A836B107E1F702D09A
:1000A000C1C0AECF8F929F92AF92BF92CF92DF929C
:1000B000EF92FF920F931F93DF93CF93CDB7DEB7ED
:1000C00028970FB6F894DEBF0FBECDBF4DD0FE010E
:1000D000319688E0DF011D928A95E9F7CC2488E00B
:1000E0009CE7892E92E9992E5F0120C0D82EDA94E0
:1000F0000D2D10E07501E00EF11EF70160814BD06F
:10010000DD2039F00C0F1D1FD8018C91F701808381
:100110000CC0EC2DF0E0E25EFF4FC394E491D701F8
:10012000EC93B2E6BC1508F4CC248D2D8823F1F6AF
:10013000C4010197F1F788E0D9CFC19898E0C2983F
:1001400087FF02C0C09A01C0C098C29A915011F0B6
:10015000880FF5CF08951F93162FC198EEDF812FDA
:10016000ECDFC19A1F910895BA9AB99AB89A84EDB2
:1001700090E30197F1F789E060E0EDDF8AE063E06A
:10018000EADF8BE067E0E7DF8CE061E0E4DF8FE04F
:1001900060E0E1DF0895982F8150883010F4892FB6
:1001A000DADF0895CF93DF93C0E0D0E0FE01E05A9C
:1001B000FF4F9E012F5F822F6081EDDF2196C830B7
:1001C000D105A1F7DF91CF9108956770E0E6F0E0E7
:1001D000E60FF11D8095877021E030E002C0220F0C
:1001E000331F8A95E2F78081822B808308956770A0
:1001F000E0E6F0E0E60FF11D8095877021E030E049
:1002000002C0220F331F8A95E2F7209580812823B0
:1002100020830895E62FF0E0E770F070E05AFF4F7A
:0802200080830895F894FFCFDC
:00000001FF
