:100000003CC156C155C154C153C152C151C150C167
:100010004FC14EC1D4C24CC14BC14AC149C100AA53
:1000200055010D056541D151711115110E000000EA
:100030000000000000005F00000000070000070053
:10004000147F147F1400242A7F2A120023130864CB
:100050006200364955225000000503000000001CD4
:10006000224100000041221C0000082A1C2A08002E
:1000700008083E0808000020600000000808080882
:1000800008000060600000002010080402003E51DB
:1000900049453E0000427F40000062514949460008
:1000A0002241494936001814127F10002745454562
:1000B00039003C4A494930000171090503003649BD
:1000C00049493600064949291E000036360000001D
:1000D000002C6C00000008142241000014141414B9
:1000E000140041221408000002015109060032499F
:1000F00079413E007E0909097E007F494949360061
:100100003E41414122007F4141221C007F49494933
:1001100041007F09090901003E41415172007F08F9
:1001200008087F0000417F4100002040413F01005E
:100130007F08142241007F40404040007F020C02B3
:100140007F007F0408107F003E4141413E007F094F
:10015000090906003E4151215E007F091929460028
:1001600026494949320001017F0101003F404040DA
:100170003F001F2040201F003F4038403F006314D5
:1001800008146300070870080700615149454300DF
:10019000007F414100000204081020000041417F1F
:1001A0000000040201020400404040404000000101
:1001B000020400002054545478007F48444438001E
:1001C000384444442000384444487F003854545450
:1001D0001800087E0901020018A4A4A47C007F086E
:1001E0000404780000447D4000004080847D0000CD
:1001F0007F102844000000417F4000007C04080478
:1002000078007C0804047800384444443800FC2416
:100210002424180018242424FC007C08040408006A
:10022000485454542400043F444020003C404020A3
:100230007C001C2040201C003C4030403C004428F6
:10024000102844001CA0A0A07C004464544C44002E
:1002500000083641000000007F0000000041360821
:10026000000002010102010055AA55AA55AA090081
:100270000A010B070C010F00000011241FBECFE57F
:10028000D2E0DEBFCDBF10E0A0E6B0E0EAE3F7E0E9
:1002900002C005900D92A237B107D9F720E0A2E77E
:1002A000B0E001C01D92A53AB207E1F7FAD143C20E
:1002B000A7CE98E0C29887FF02C0C19A01C0C1983A
:1002C000C29A880F9150B1F70895CF93C62FC09866
:1002D000F0DF8C2FEEDFC09AC298CF910895CF93B4
:1002E000DF93BA9AB89AB99ACEE6D2E0FE01849129
:1002F00031966491EADF2296F2E0CA37DF07B1F760
:10030000DF91CF9108959FEF980F983008F4DDCFDB
:1003100008950F931F93CF938C01C62FE0DF1093A6
:10032000A1000093A000C0939F00CF911F910F9157
:1003300008951F93CF93DF93D1E010E8C0919F0001
:10034000C850C098C7FD22C08D2FB3DF20E030E039
:100350004C2F0C2E000C550B495F5F4FC298E0915B
:10036000A000F091A100CA01821B930BE80FF91FB6
:100370008081812311F0C19A01C0C198C29A2F5F78
:100380003F4F2830310551F7C850DCCFC09AC29892
:100390001695DF5FD93091F6DF91CF911F910895C7
:1003A000C8CF90919F00891778F4E091A000F09158
:1003B000A100E80FF11D81E090E001C0880F6A956F
:1003C000EAF79081892B8083089590919F00891787
:1003D00080F4E091A000F091A100E80FF11D81E010
:1003E00090E001C0880F6A95EAF780959081892393
:1003F0008083089590919F00891738F4E091A000C0
:10040000F091A100E80FF11D608308952091A000F4
:100410003091A100F901E80FF11D808108958091CC
:10042000A0009091A10040919F0050E041505109DF
:10043000BC016F5F7F4F76C161E080ED91E09DC0B0
:10044000882341F0E3ECF9E03197F1F700C00000B8
:100450008150F6CF08959093A4008093A3006093F9
:10046000A20008950F931F93CF93DF93182F062FA9
:10047000C0E0D0E08091A200902F981B892F90E0DF
:10048000FC01EE0FFF1FEE0FFF1F880F991FE80FF3
:10049000F91FCF018C0F9D1FE091A300F091A400E4
:1004A000E80FF91F64918C2F810FA4DF2196C830CB
:1004B000D10501F7DF91CF911F910F910895DF9240
:1004C000EF92FF920F931F93CF93DF93D82E8B0160
:1004D0007A01D22FC0E0F701EC0FF11DE00FF11F00
:1004E00064918D2D8C0F86DFCF5FDC17A0F7DF9135
:1004F000CF911F910F91FF90EF90DF900895CF93D0
:10050000DF93D62FC82FCC2329F089DF8D2F98DFDA
:10051000C150F9CFDF91CF91089580E090919F0075
:10052000891758F4E091A000F091A100E80FF11DA7
:100530009081909590838F5FF1CF0895CF93DF9353
:10054000D62FC82FCC0FCC2329F0E7DF8D2F78DFF3
:10055000C150F9CFDF91CF9108959093800080939F
:100560007F008AB582608ABD89B7806189BF08959E
:1005700080936300609362000895209176002F5F5E
:1005800020937600243080F430E0F901EE0FFF1F55
:10059000E158FF4F91838083F901E558FF4F608355
:1005A000F901E958FF4F60830895789480916200C3
:1005B00089BD93B780916300892B83BF08951F92F3
:1005C0000F920FB60F921124CF92DF92EF92FF920B
:1005D0001F932F933F934F935F936F937F938F93CB
:1005E0009F93AF93BF93CF93DF93EF93FF938FE7E7
:1005F000C82E80E0D82E9BE7E92E90E0F92EC7E7C1
:10060000D0E010E0D601ED91FD916D013097B9F089
:100610008881811112C011110AC06091720070911D
:1006200073008091740090917500099503C082E772
:1006300090E00995F701808101C0815088831F5F98
:10064000FFEFEF1AFF0A21961430E1F68091720055
:1006500090917300A0917400B09175000196A11D56
:10066000B11D8093720090937300A0937400B093B7
:100670007500FF91EF91DF91CF91BF91AF919F9165
:100680008F917F916F915F914F913F912F911F912A
:10069000FF90EF90DF90CF900F900FBE0F901F90C4
:1006A000189580E090E059DF69E085E061DF7DDF4B
:1006B00068E187E890E02DDEBFDE60E28EE290E048
:1006C000CADEC0916000D09161006991662331F06B
:1006D00080E1C8DE64E086E012DFF7CF28E040E08A
:1006E00050E06EE170E080E1EADE64E088E007DF80
:1006F00028E048E050E06EE170E080E1E0DE64E098
:1007000088E0FDDE8FEF99EF0197F1F700C0000060
:1007100068E083E013DF8FEF99EF0197F1F700C0F6
:100720000000CFCFFB01DC0102C001900D924150CF
:0A0730005040D8F70895F894FFCF69
:10073A006400610548656C6C6F2C20576F726C649D
:02074A0021008C
:00000001FF
