:100000000EC028C027C026C025C024C023C022C0DF
:1000100021C020C021C21EC01DC01CC01BC0112495
:100020001FBECFE5D2E0DEBFCDBF10E0A0E6B0E05E
:10003000E0EBF5E002C005900D92A43EB107D9F7C0
:1000400021E0A4EEB0E001C01D92A931B207E1F7B2
:1000500075D2ACC2D5CFE9EFF0E028E02E0FDC017D
:100060003D91CD0131932E13FACF08950F931F9335
:10007000CF9309EF10E0C0E0F80161918F018C2F60
:1000800096D1CF5FC830C1F7CF911F910F910895DE
:10009000CF93DF93782F4FEF80E0A1E0B0E0542FB3
:1000A000560F252F052E000C330B20953095277009
:1000B0003327ED0102C0CC0FDD1F2A95E2F79FEF39
:1000C000911102C0442381F0E92FE70FE83060F47A
:1000D000583050F4F0E0E750FF4F208130E02C23FF
:1000E0003D23232B09F08F5F9F5F923049F74F5FCD
:1000F0004230A9F6DF91CF9108956F927F928F924F
:100100009F92AF92BF92CF92DF92EF92FF920F93A6
:100110001F93CF93DF930FEF1FEFEE24E394F12CA7
:10012000602E6094C80187709927570102C0AA0CFD
:10013000BB1C8A95E2F77A2C8A2C809489EFC82E12
:1001400080E0D82EC1E0D1E0912C662D892DA0DF72
:10015000F60121916F0130E02A213B21232B31F060
:10016000823048F08250823030F402C0833019F47B
:100170008881872902C08881882188839394219669
:10018000F8E09F12E2CF01501109073F8FEF1807E7
:1001900039F6DF91CF911F910F91FF90EF90DF9093
:1001A000CF90BF90AF909F908F907F906F90089569
:1001B000A9EFB0E0E1E0F1E088E08E0F91919D932E
:1001C0008E13FCCF089598E0C09887FF02C0C29AB2
:1001D00001C0C298C09A880F9150B1F70895CF938B
:1001E000DF931F92CDB7DEB7C1986983ECDF6981D9
:1001F000862FE9DFC19AC0980F90DF91CF910895C3
:10020000AF92BF92CF92DF92EF92FF920F931F9324
:10021000CF93DF93CDB7DEB72A970FB6F894DEBF42
:100220000FBECDBFE82E9AE0E9EDF0E0DE011196B9
:1002300001900D929A95E1F7B89AB99ABA9A83ED1E
:1002400090E30197F1F700C000008E010F5F1F4F90
:100250006E019BE0C90ED11CF801B080A180C0984E
:10026000C198F12CFE1431F08B2DADDF8A2DABDF60
:10027000F394F8CFC19AC0980E5F1F4F0C151D055F
:1002800059F72A960FB6F894DEBF0FBECDBFDF91A7
:10029000CF911F910F91FF90EF90DF90CF90BF9083
:1002A000AF9008959FEF980F983008F498CF089575
:1002B0000F931F93CF93DF931F92CDB7DEB78C01BF
:1002C000862F86958695869569839ADF1093D6004A
:1002D0000093D50069816093D4000F90DF91CF9196
:1002E0001F910F91089561E08DEA91E093C01F93F3
:1002F000CF93DF93D1E010E8C091D400C850C198EB
:10030000C7FD21C08D2F5FDF80E090E04C2F0C2EC9
:10031000000C550B495F5F4FC098E091D500F091FC
:10032000D6009A01281B390BE20FF31F20812123ED
:1003300011F0C29A01C0C298C09A01968830910506
:1003400059F7C850DDCFC19AC0981695DF5FD930F4
:1003500099F6DF91CF911F910895C9CF9091D40064
:10036000891778F4E091D500F091D600E80FF11DDF
:1003700081E090E001C0880F6A95EAF79081892BAF
:10038000808308959091D400891780F4E091D5007E
:10039000F091D600E80FF11D81E090E001C0880FD8
:1003A0006A95EAF7809590818923808308959091DA
:1003B000D400891738F4E091D500F091D600E80F09
:1003C000F11D608308952091D5003091D600F90188
:1003D000E80FF11D808108958091D5009091D6009D
:1003E0004091D40050E041505109BC016F5F7F4FF4
:1003F000D4C07DCF9093F2008093F1008AB58260E3
:100400008ABD89B7806189BF08958093D8006093C1
:10041000D70008952091E8002F5F2093E800243052
:1004200080F430E0F901EE0FFF1FEF50FF4F918392
:100430008083F901E351FF4F6083F901E751FF4FDA
:100440006083089578948091D70089BD93B7809197
:10045000D800892B83BF08951F920F920FB60F9279
:100460001124EF92FF920F931F932F933F934F937B
:100470005F936F937F938F939F93AF93BF93CF932C
:10048000DF93EF93FF9381EFE82E80E0F82E09EEE3
:1004900010E0C0E0D0E0D701ED91FD917D013097F3
:1004A000E9F0D8018C91811116C0209751F4609128
:1004B000E4007091E5008091E6009091E7000995D5
:1004C00003C084EE90E00995FE01E351FF4F808167
:1004D000F801808303C08150D8018C9321960F5F6F
:1004E0001F4FC430D105B9F68091E4009091E5002A
:1004F000A091E600B091E7000196A11DB11D809387
:10050000E4009093E500A093E600B093E700FF912C
:10051000EF91DF91CF91BF91AF919F918F917F919B
:100520006F915F914F913F912F911F910F91FF908C
:10053000EF900F900FBE0F901F90189580E090E005
:1005400059DF69E085E061DF7DDF68E089E091E007
:10055000AFDEC9DEC0E6D0E0899199917CDD18E27A
:1005600085DD83ED90E30197F1F700C00000C5DD64
:100570001FDE1150A9F784E790E06DDD77DD9FE97C
:1005800026E881E0915020408040E1F700C0000063
:1005900090E0C437D90701F7DDCFFB01DC0102C0D1
:1005A00001900D9241505040D8F70895F894FFCF34
:1005B000CC00C400BC00B400AC00A4009C009400BB
:1005C0008C008400FFFFFFFFFFFFFFFFC0C0303043
:1005D00000000E002038C45440320600000C124ABD
:1005E00044400830000C124A04582000184242428D
:1005F00024A5C3000018664224A5C3001824428124
:1006000081422418000000060C0400004020E00095
:100610000000000000070E00C0C030300000700075
:1006200004040400081101610509000A010B070C0C
:04063000010F0000B6
:00000001FF
