:100000000EC028C027C026C025C024C023C022C0DF
:1000100021C020C079C11EC01DC01CC01BC011243E
:100020001FBECFE5D2E0DEBFCDBF10E0A0E6B0E05E
:10003000E0E1F4E002C005900D92A63DB107D9F7CA
:1000400020E0A6EDB0E001C01D92A43FB207E1F7A9
:100050009DD1DCC1D5CFE2EEF0E028E02E0FDC012F
:100060003D91CD0131932E13FACF08950F931F9335
:10007000CF9302EE10E0C0E06C2FF80181918F0168
:100080000ED1CF5FC830C1F7CF911F910F91089566
:10009000CF93DF93782F9FEF80E04FEF592F560FCC
:1000A000A52FB0E0AE51BF4F411102C09923A9F076
:1000B000242F270F283088F4583078F4EC91F0E0A2
:1000C00030E02095309527703327EF0102C0D59599
:1000D000C7952A95E2F7C0FD8F5F4F5F423021F749
:1000E0009F5F9230D1F6DF91CF9108959F92AF92AA
:1000F000BF92CF92DF92EF92FF920F931F93CF9315
:10010000DF9382EEA82E80E0B82ECAEED0E0912CCC
:10011000EE24E394F12CF501C1905F01D12C0FEF97
:100120001FEF692D802F8095B3DF9801277033274B
:10013000A601022E02C0559547950A94E2F740FFAA
:1001400006C0823070F08250823058F402C0833092
:1001500041F4C70101C0880F2A95EAF79881892BDD
:1001600008C0C70101C0880F2A95EAF780959881D9
:100170008923888301501109073F8FEF180789F6FB
:1001800093942196E8E09E12C6CFDF91CF911F9104
:100190000F91FF90EF90DF90CF90BF90AF909F9026
:1001A0000895A2EEB0E0EAEEF0E088E08E0F9191C3
:1001B0009D938E13FCCF0895C19898E0C29887FF55
:1001C00002C0C09A01C0C098880FC29A9150B1F77E
:1001D0000895CF93DF931F92CDB7DEB7C19869839F
:1001E000EBDF6981862FE8DFC19A0F90DF91CF9115
:1001F0000895BA9AB99AB89A83ED90E30197F1F706
:1002000000C0000060E089E0E4DF63E08AE0E1DF55
:1002100067E08BE0DEDF61E08CE0DBDF60E08FE059
:10022000D8CF9FEF980F983008F4D3CF08950F934D
:100230001F93CF9306ED10E0C1E0F80161918F01AB
:100240008C2FEFDFCF5FC930C1F7CF911F910F9196
:100250000895EDCF6770E62FF0E0EA52FF4F8095EA
:10026000282F277081E090E001C0880F2A95EAF7D7
:100270009081892B808308956770E62FF0E0EA5221
:10028000FF4F8095282F277081E090E001C0880FF4
:100290002A95EAF780959081892380830895677075
:1002A000E62FF0E0EA52FF4F8083089589E291E063
:1002B00011D069E085E019D01DC08AB582608ABD81
:1002C00089B7806189BF0895789489BD83B78560B7
:1002D00083BF08959093F3008093F2008AB5826003
:1002E0008ABD89B7806189BF08958093C1006093FA
:1002F000C000089578948091C00089BD93B7809123
:10030000C100892B83BF08951F920F920FB60F92E1
:1003100011242F933F934F935F936F937F938F930A
:100320009F93AF93BF93EF93FF936091DE00709123
:10033000DF008091E0009091E100E091F200F09107
:10034000F30009958091DE009091DF00A091E0001C
:10035000B091E1000196A11DB11D8093DE00909344
:10036000DF00A093E000B093E100FF91EF91BF9117
:10037000AF919F918F917F916F915F914F913F913D
:100380002F910F900FBE0F901F901895CF93DF9372
:10039000CDB7DEB764970FB6F894DEBF0FBECDBF02
:1003A00028DF84E1E2ECF0E0DE01119601900D928D
:1003B0008A95E1F77BDF6E0125E1C20ED11C8E012B
:1003C0000F5F1F4FF801819191918F0144DE88E208
:1003D000F82E4CDE87EA91E60197F1F700C00000A5
:1003E00085DEDFDEFA94F110F4CF80E690E033DEB4
:1003F0003DDE9FE3EDE0F3E09150E040F040E1F7B7
:1004000000C000000C151D05E9F6D9CFF894FFCF08
:10041000FFFFFFFFFFFFFFFFC0C0303000000E00F6
:100420002038C45440320600000C124A44400830C0
:10043000000C124A045820001842424224A5C3006E
:100440000018664224A5C300182442818142241862
:10045000000000060C0400004020E0000000000046
:1004600000070E00C0C0303000007000040404001B
:100470006105B800B000A800A000980090008800B6
:060480008000780070000E
:00000001FF
