:1000000093C1ADC1ACC1ABC1AAC1A9C1A8C1A7C1AF
:10001000A6C1A5C1CAC2A3C1A2C1A1C1A0C10000FD
:1000200000000000000000065F5F060000000007FF
:10003000070007070000147F7F147F7F1400242E21
:100040006B6B3A120000466630180C666200307A1C
:100050004F5D377A48000407030000000000001CD1
:100060003E63410000000041633E1C000000082A7E
:100070003E1C1C3E2A0808083E3E0808000000807E
:10008000E060000000000808080808080000000000
:100090006060000000006030180C060301003E7F25
:1000A00071594D7F3E0040427F7F404000006273A7
:1000B00059496F660000226349497F360000181CC9
:1000C00016537F7F5000276745457D3900003C7EF1
:1000D0004B4979300000030371790F070000367F28
:1000E00049497F360000064F49693F1E0000000065
:1000F0006666000000000080E66600000000081C44
:1001000036634100000024242424242400000041FC
:1001100063361C080000020351590F0600003E7FA1
:10012000415D5D1F1E007C7E13137E7C0000417FBD
:100130007F49497F36001C3E634141632200417F75
:100140007F41633E1C00417F7F495D416300417FE9
:100150007F491D0103001C3E6341517372007F7F84
:1001600008087F7F000000417F7F41000000307061
:1001700040417F3F0100417F7F081C776300417F42
:100180007F41406070007F7F0E1C0E7F7F007F7F6D
:10019000060C187F7F001C3E6341633E1C00417FBC
:1001A0007F49090F06001E3F21717F5E0000417FDD
:1001B0007F09197F6600266F4D5973320000034195
:1001C0007F7F410300007F7F40407F7F00001F3F13
:1001D00060603F1F00007F7F3018307F7F004367E3
:1001E0003C183C674300074F78784F07000047638F
:1001F00071594D677300007F7F414100000001038A
:10020000060C183060000041417F7F000000080CA0
:100210000603060C080080808080808080800000BB
:10022000030704000000207454543C784000417FD0
:100230003F4848783000387C44446C2800003078CF
:1002400048493F7F4000387C54545C180000487E89
:100250007F490302000098BCA4A4F87C0400417FFD
:100260007F08047C780000447D7D4000000060E051
:100270008080FD7D0000417F7F10386C440000418C
:100280007F7F400000007C7C18381C7C78007C7CE0
:1002900004047C780000387C44447C38000084FCF2
:1002A000F8A4243C1800183C24A4F8FC8400447CE6
:1002B000784C041C1800485C54547424000000045A
:1002C0003E7F442400003C7C40403C7C40001C3C81
:1002D00060603C1C00003C7C7038707C3C00446CCE
:1002E0003810386C44009CBCA0A0FC7C00004C641E
:1002F000745C4C64000008083E7741410000000037
:100300000077770000004141773E080800000203B3
:1003100001030203010000000000000000000900CA
:100320000A010B070C010F0011241FBECFE5D2E01C
:10033000DEBFCDBF10E0A0E6B0E0E6EDF6E002C023
:1003400005900D92A236B107D9F720E0A2E6B0E001
:1003500001C01D92AB38B207E1F799D1BAC150CEB6
:10036000FF920F931F93CF93DF93F82EC62FD0E009
:10037000A09783E0CC0FDD1F8A95E1F700E010E045
:10038000FE01E00FF11FE25EFF4F64918F2D800FA1
:10039000B4D00F5F1F4F0830110591F7DF91CF9157
:1003A0001F910F91FF90089598E0C29887FF02C0B7
:1003B000C19A01C0C198C29A880F9150B1F70895AF
:1003C0001F93CF93DF93D82F162FC42FC098CC2321
:1003D00031F08D2FE9DF812FE7DFC150F8CFC09AD0
:1003E000C298DF91CF911F910895CF93DF93BA9A6E
:1003F000B89AB99A80938A00CEE1D3E0FE01849145
:100400003196649140918A00DBDF2296F3E0C83296
:10041000DF07A1F7DF91CF9108959FEF980F9830F4
:1004200018F440918A00CCCF08950F931F93CF9377
:100430008B01C42FDADF1093890000938800C093EA
:100440008700CF911F910F9108951F93CF93DF9352
:10045000C1E010E8D0918700C098DD23D1F08C2F47
:10046000A3DF8D2F90E0019728E0E0918800F091C4
:100470008900E80FF91F3081C298312311F0C19A29
:1004800001C0C198C29A215001972111EECFD850D6
:10049000E4CFC09AC2981695CF5FC930D9F6DF91E4
:1004A000CF911F910895D1CF90918700891778F44B
:1004B000E0918800F0918900E80FF11D81E090E063
:1004C00001C0880F6A95EAF79081892B808308958F
:1004D00090918700891780F4E0918800F09189005D
:1004E000E80FF11D81E090E001C0880F6A95EAF7FE
:1004F0008095908189238083089590918700891742
:1005000038F4E0918800F0918900E80FF11D6083D4
:1005100008952091880030918900F901E80FF11DBC
:100520008081089580918800909189004091870092
:1005300050E041505109BC016F5F7F4FC1C061E085
:1005400083E592E010C09093700080936F008AB5AD
:1005500082608ABD89B7806189BF089580936100F8
:10056000609360000895209166002F5F20936600DD
:10057000243080F430E0F901EE0FFF1FE159FF4F06
:1005800091838083F901E559FF4F6083F901E959AF
:10059000FF4F6083089578948091600089BD93B780
:1005A00080916100892B83BF08951F920F920FB62F
:1005B0000F921124CF92DF92EF92FF921F932F930D
:1005C0003F934F935F936F937F938F939F93AF93DB
:1005D000BF93CF93DF93EF93FF938FE6C82E80E016
:1005E000D82E9BE6E92E90E0F92EC7E6D0E010E089
:1005F000D601ED91FD916D013097B9F0888181119F
:1006000012C011110AC06091620070916300809164
:10061000640090916500099503C082E690E0099519
:10062000F701808101C0815088831F5FFFEFEF1ABF
:10063000FF0A21961430E1F68091620090916300E8
:10064000A0916400B09165000196A11DB11D809339
:10065000620090936300A0936400B0936500FF91E3
:10066000EF91DF91CF91BF91AF919F918F917F914A
:100670006F915F914F913F912F911F91FF90EF905C
:10068000DF90CF900F900FBE0F901F90189540E114
:1006900067E770E082E0C9DEC0E26C2F88E060DED0
:1006A000D4DED8E03FDFD1DE8FE097E20197F1F7AB
:1006B00000C00000D150B1F7CF5FC03871F7ECCF68
:1006C000FB01DC0102C001900D9241505040D8F76F
:0606D0000895F894FFCF2D
:0206D6006105BC
:00000001FF
