:100000004BC065C064C063C062C061C060C05FC0F7
:100010005EC05DC056C15BC05AC059C058C0000028
:1000200000008181C3C3E3E3C38100000103070F24
:100030001F8FC7E3F1F8F1E3C78F1F8FC7C381811B
:1000400000000008080818181808080800000081B7
:1000500081C3C3E7E7E7E7C3C38181000000101055
:10006000181810101111111010181808080000812C
:10007000C3C7870F1F1F1F8FC7C38100000000AABF
:1000800055AA55FFFF00000000000009000A010BFF
:10009000070C010F0000000011241FBECFE5D2E0C5
:1000A000DEBFCDBF10E0A0E6B0E0EAEFF3E002C0B3
:1000B00005900D92A236B107D9F720E0A2E6B0E094
:1000C00001C01D92AA38B207E1F76DD194C198CF53
:1000D00098E0C29887FF02C0C19A01C0C198C29A35
:1000E000880F9150B1F70895CF93C62FC098F0DFD5
:1000F0008C2FEEDFC09AC298CF910895CF93DF93F3
:10010000BA9AB89AB99ACBE8D0E0FE0184913196B8
:100110006491EADF2296F0E0C739DF07B1F7DF919B
:10012000CF9108959FEF980F983008F4DDCF089590
:100130000F931F93CF938C01C62FE0DF109389009C
:1001400000938800C0938700CF911F910F9108956D
:100150001F93CF93DF93D1E010E8C0918700C85080
:10016000C098C7FD22C08D2FB3DF20E030E04C2FB8
:100170000C2E000C550B495F5F4FC298E091880030
:10018000F0918900CA01821B930BE80FF91F80814F
:10019000812311F0C19A01C0C198C29A2F5F3F4FCD
:1001A0002830310551F7C850DCCFC09AC298169557
:1001B000DF5FD93091F6DF91CF911F910895C8CFBD
:1001C00090918700891778F4E0918800F091890078
:1001D000E80FF11D81E090E001C0880F6A95EAF711
:1001E0009081892B8083089590918700891780F4EE
:1001F000E0918800F0918900E80FF11D81E090E026
:1002000001C0880F6A95EAF78095908189238083E1
:10021000089590918700891738F4E0918800F09153
:100220008900E80FF11D60830895209188003091C6
:100230008900F901E80FF11D8081089580918800FF
:10024000909189004091870050E041505109BC01D4
:100250006F5F7F4FC7C061E08FED90E010C090935B
:10026000700080936F008AB582608ABD89B7806113
:1002700089BF089580936100609360000895209184
:1002800066002F5F20936600243080F430E0F9018F
:10029000EE0FFF1FE159FF4F91838083F901E5596C
:1002A000FF4F6083F901E959FF4F60830895789407
:1002B0008091600089BD93B780916100892B83BFD5
:1002C00008951F920F920FB60F921124CF92DF92D2
:1002D000EF92FF921F932F933F934F935F936F93F0
:1002E0007F938F939F93AF93BF93CF93DF93EF93BE
:1002F000FF938FE6C82E80E0D82E9BE6E92E90E093
:10030000F92EC7E6D0E010E0D601ED91FD916D0128
:100310003097B9F08881811112C011110AC0609123
:10032000620070916300809164009091650009956E
:1003300003C082E690E00995F701808101C08150F9
:1003400088831F5FFFEFEF1AFF0A21961430E1F652
:100350008091620090916300A0916400B09165006B
:100360000196A11DB11D8093620090936300A0933C
:100370006400B0936500FF91EF91DF91CF91BF9141
:10038000AF919F918F917F916F915F914F913F912D
:100390002F911F91FF90EF90DF90CF900F900FBEA5
:1003A0000F901F90189580E090E059DF69E085E09C
:1003B00061DF7DDF60E187E790E0BADE4CDFCEE110
:1003C000D0E0FE0164918FE024DF38DF81EF9BE213
:1003D0000197F1F700C00000219690E0CB38D907D3
:1003E00081F7EDCFFB01DC0102C001900D9241507D
:0A03F0005040D8F70895F894FFCFAD
:0203FA0061059B
:00000001FF
