:100000000EC028C027C026C025C024C023C022C0DF
:1000100021C020C0BBC01EC01DC01CC01BC01124FD
:100020001FBECFE5D2E0DEBFCDBF10E0A0E6B0E05E
:10003000E6E9F2E002C005900D92A23AB107D9F7C5
:1000400020E0A2EAB0E001C01D92A03BB207E1F7B8
:10005000DFD01FC1D5CFC19898E0C29887FF02C0FA
:10006000C09A01C0C098880FC29A9150B1F7089504
:10007000CF93DF931F92CDB7DEB7C1986983EBDFD3
:100080006981862FE8DFC19A0F90DF91CF910895A3
:10009000BA9AB99AB89A83ED90E30197F1F700C044
:1000A000000060E089E0E4DF63E08AE0E1DF67E030
:1000B0008BE0DEDF61E08CE0DBDF60E08FE0D8CF5B
:1000C0009FEF980F983008F4D3CF08950F931F93A4
:1000D000CF9302EA10E0C1E0F80161918F018C2F0B
:1000E000EFDFCF5FC930C1F7CF911F910F91089516
:1000F000EDCF6770E62FF0E0EE55FF4F8095282F8B
:10010000277081E090E001C0880F2A95EAF790817E
:10011000892B808308956770E62FF0E0EE55FF4F3E
:100120008095282F277081E090E001C0880F2A95E4
:10013000EAF7809590818923808308956770E62F80
:10014000F0E0EE55FF4F8083089588E790E004D0FB
:1001500069E085E00CD010C09093AF008093AE00B2
:100160008AB582608ABD89B7806189BF089580930E
:10017000610060936000089578948091600089BD6B
:1001800093B780916100892B83BF08951F920F92CE
:100190000FB60F9211242F933F934F935F936F935A
:1001A0007F938F939F93AF93BF93EF93FF93609150
:1001B000AA007091AB008091AC009091AD00E091ED
:1001C000AE00F091AF0009958091AA009091AB002C
:1001D000A091AC00B091AD000196A11DB11D80931E
:1001E000AA009093AB00A093AC00B093AD00FF9138
:1001F000EF91BF91AF919F918F917F916F915F919F
:100200004F913F912F910F900FBE0F901F90189517
:10021000CF93DF93CDB7DEB7C054D1090FB6F894B2
:10022000DEBF0FBECDBF34DF80E4E2E6F0E0DE01EA
:10023000119601900D928A95E1F7CE0101966C011D
:1002400088E0E82E00E010E0A02EF601E00FF11F9C
:10025000B080F12C3BDF6A2D8F2DB0FE02C049DF4C
:1002600001C059DFB69487E893E10197F1F700C028
:100270000000F39498E0F912EDCF0F5F1F4F0830A4
:10028000110511F7EA9488E0C80ED11CE110DACF0D
:06029000D4CFF894FFCF6B
:100296006105FFFFFFFFFFFFFFFFAA55AA55AA55FD
:1002A600AA5555AA55AA55AA55AACCCC3333CCCCB7
:1002B60033333333CCCC3333CCCC0103070F1F3F5E
:1002C6007FFFFF7F3F1F0F070301000000000000B4
:0202D600000026
:00000001FF
