:100000000EC028C027C026C025C024C023C022C0DF
:1000100021C020C069C11EC01DC01CC01BC011244E
:100020001FBECFE5D2E0DEBFCDBF10E0A0E6B0E05E
:10003000E4E2F4E002C005900D92A037B107D9F7D1
:1000400020E0A0E7B0E001C01D92A539B207E1F7BA
:10005000BDD1E6C1D5CF98E0C09887FF02C0C29A53
:1000600001C0C298C09A880F9150B1F70895CF93FC
:10007000DF931F92CDB7DEB7C1986983ECDF69814A
:10008000862FE9DFC19AC0980F90DF91CF91089534
:10009000AF92BF92CF92DF92EF92FF920F931F9396
:1000A000CF93DF93CDB7DEB72A970FB6F894DEBFB4
:1000B0000FBECDBFE82E9AE0E5E6F0E0DE01119636
:1000C00001900D929A95E1F7B89AB99ABA9A83ED90
:1000D00090E30197F1F700C000008E010F5F1F4F02
:1000E0006E019BE0C90ED11CF801B080A180C098C0
:1000F000C198F12CFE1431F08B2DADDF8A2DABDFD2
:10010000F394F8CFC19AC0980E5F1F4F0C151D05D0
:1001100059F72A960FB6F894DEBF0FBECDBFDF9118
:10012000CF911F910F91FF90EF90DF90CF90BF90F4
:10013000AF9008959FEF980F983008F498CF0895E6
:100140000F931F93CF93DF931F92CDB7DEB78C0130
:10015000862F86958695869569839ADF109362002F
:10016000009361006981609360000F90DF91CF91EF
:100170001F910F91089561E085EF90E093C01F9368
:10018000CF93DF93D1E010E8C0916000C850C198D0
:10019000C7FD21C08D2F5FDF80E090E04C2F0C2E3B
:1001A000000C550B495F5F4FC098E0916100F091E2
:1001B00062009A01281B390BE20FF31F20812123D3
:1001C00011F0C29A01C0C298C09A01968830910578
:1001D00059F7C850DDCFC19AC0981695DF5FD93066
:1001E00099F6DF91CF911F910895C9CF909160004A
:1001F000891778F4E0916100F0916200E80FF11D39
:1002000081E090E001C0880F6A95EAF79081892B20
:100210008083089590916000891780F4E0916100D7
:10022000F0916200E80FF11D81E090E001C0880FBD
:100230006A95EAF78095908189238083089590914B
:100240006000891738F4E0916100F0916200E80FD6
:10025000F11D608308952091610030916200F901E1
:10026000E80FF11D808108958091610090916200F6
:100270004091600050E041505109BC016F5F7F4FD9
:10028000C6C07DCF90937E0080937D008AB582604A
:100290008ABD89B7806189BF0895809364006093A7
:1002A00063000895209174002F5F20937400243020
:1002B00080F430E0F901EE0FFF1FE358FF4F918308
:1002C0008083F901E758FF4F6083F901EB58FF4F36
:1002D0006083089578948091630089BD93B780917D
:1002E0006400892B83BF08951F920F920FB60F925F
:1002F0001124EF92FF920F931F932F933F934F93ED
:100300005F936F937F938F939F93AF93BF93CF939D
:10031000DF93EF93FF938DE7E82E80E0F82E05E75B
:1003200010E0C0E0D0E0D701ED91FD917D01309764
:10033000E9F0D8018C91811116C0209751F4609199
:100340007000709171008091720090917300099516
:1003500003C080E790E00995FE01E758FF4F8081D8
:10036000F801808303C08150D8018C9321960F5FE0
:100370001F4FC430D105B9F6809170009091710083
:10038000A0917200B09173000196A11DB11D8093E0
:10039000700090937100A0937200B0937300FF916E
:1003A000EF91DF91CF91BF91AF919F918F917F910D
:1003B0006F915F914F913F912F911F910F91FF90FE
:1003C000EF900F900FBE0F901F90189580E090E077
:1003D00059DF69E085E061DF7DDF68E085E890E076
:1003E000AFDEC9DED0E0C0E06D2F8C2FFFDE83EEE4
:1003F00097E50197F1F700C000006D2F8C2F0ADF01
:10040000CF5FC83089F7DF5FD83069F7EBCFFB01EA
:10041000DC0102C001900D9241505040D8F7089580
:04042000F894FFCF7E
:10042400088D00610509000A010B070C010F00008B
:00000001FF
