:100000000EC028C027C026C025C024C023C022C0DF
:1000100021C020C01FC01EC01DC01CC01BC0112499
:100020001FBECFE5D2E0DEBFCDBF10E0A0E6B0E05E
:10003000E6E8F2E002C005900D92AC36B107D9F7C0
:1000400020E0ACE6B0E001C01D92AF36B207E1F7A8
:10005000F5D017C1D5CF98E0C09887FF02C0C29AEB
:1000600001C0C298C09A880F9150B1F70895CF93FC
:10007000DF931F92CDB7DEB7C1986983ECDF69814A
:10008000862FE9DFC19AC0980F90DF91CF91089534
:10009000EF92FF920F931F93CF93DF93CDB7DEB70D
:1000A0002C970FB6F894DEBF0FBECDBF8CE0E0E614
:1000B000F0E0DE01119601900D928A95E1F7B89A71
:1000C000B99ABA9A8E010F5F1F4F7E018DE0E80E3C
:1000D000F11CF80161818081CADF0E5F1F4F0E1590
:1000E0001F05B9F72C960FB6F894DEBF0FBECDBF33
:1000F000DF91CF911F910F91FF90EF9008959FEFA7
:10010000980F983008F4B3CF08950F931F93CF93AF
:10011000DF931F92CDB7DEB78C016983B9DF1093EF
:100120006E0000936D00698160936C000F90DF9109
:10013000CF911F910F9108951F93CF93DF93D1E03B
:1001400010E8C0916C00C850C198C7FD21C08D2F28
:1001500082DF80E090E04C2F0C2E000C550B495FA5
:100160005F4FC098E0916D00F0916E009A01281BDE
:10017000390BE20FF31F2081212311F0C29A01C035
:10018000C298C09A01968830910559F7C850DDCFC2
:10019000C19AC0981695DF5FD93099F6DF91CF915B
:1001A0001F91089590916C00891778F4E0916D008B
:1001B000F0916E00E80FF11D81E090E001C0880F22
:1001C0006A95EAF79081892B8083089590916C005D
:1001D000891780F4E0916D00F0916E00E80FF11D39
:1001E00081E090E001C0880F6A95EAF780959081E0
:1001F00089238083089590916C00891738F4E091E9
:100200006D00F0916E00E80FF11D6083089520915C
:100210006D0030916E00F901E80FF11D80810895A5
:1002200080916D0090916E0040916C0050E04150C3
:100230005109BC016F5F7F4F1BC07ECF29DFC0E03B
:1002400019E0D1E001E00C0F6D2F8C2F58DF6D2FDE
:100250006095802F54DFDD0F83ED90E30197F1F778
:1002600000C00000115081F7C02F093049F7E7CFD7
:10027000FB01DC0102C001900D9241505040D8F7C3
:060280000895F894FFCF81
:0C02860009000A010B070C010F0000002A
:00000001FF
