:1000000014C02EC02DC02CC02BC02AC029C028C0AF
:1000100027C026C019C124C023C022C021C00900A6
:100020000A010B070C010F00000011241FBECFE5D1
:10003000D2E0DEBFCDBF10E0A0E6B0E0ECE9F3E037
:1000400002C005900D92AA36B107D9F720E0AAE6C2
:10005000B0E001C01D92A239B207E1F767D19CC19F
:10006000CFCF98E0C29887FF02C0C19A01C0C19863
:10007000C29A880F9150B1F70895CF93C62FC098B8
:10008000F0DF8C2FEEDFC09AC298CF910895CF9306
:10009000DF93BA9AB89AB99ACEE1D0E0FE01849182
:1000A00031966491EADF2296F0E0CA32DF07B1F7B9
:1000B000DF91CF9108959FEF980F983008F4DDCF2E
:1000C00008950F931F93CF938C01C62FE0DF1093F9
:1000D000910000939000C0938F00CF911F910F91DA
:1000E00008951F93CF93DF93D1E010E8C0918F0064
:1000F000C850C098C7FD1CC08D2FB3DF8C2F0C2EAD
:10010000000C990B079628E0C298E0919000F091BE
:100110009100E80FF91F3081312311F0C19A01C01D
:10012000C198C29A215001972111EECFC850E2CF59
:10013000C09AC2981695DF5FD930C1F6DF91CF9192
:100140001F910895CECF90918F00891778F4E09198
:100150009000F0919100E80FF11D81E090E001C066
:10016000880F6A95EAF79081892B80830895909192
:100170008F00891780F4E0919000F0919100E80FD2
:10018000F11D81E090E001C0880F6A95EAF7809543
:10019000908189238083089590918F00891738F486
:1001A000E0919000F0919100E80FF11D60830895B7
:1001B0002091900030919100F901E80FF11D8081AC
:1001C0000895809190009091910040918F0050E0AF
:1001D00041505109BC016F5F7F4FD5C061E082EA99
:1001E00090E010C090937800809377008AB5826089
:1001F0008ABD89B7806189BF089580936900609343
:100200006800089520916E002F5F20936E002430C7
:1002100080F430E0F901EE0FFF1FE958FF4F9183A2
:100220008083F901ED58FF4F6083F901E159FF4FD9
:100230006083089578948091680089BD93B7809118
:100240006900892B83BF08951F920F920FB60F92FA
:100250001124CF92DF92EF92FF921F932F933F933F
:100260004F935F936F937F938F939F93AF93BF93BE
:10027000CF93DF93EF93FF9387E7C82E80E0D82ECC
:1002800093E7E92E90E0F92ECFE6D0E010E0D6011A
:10029000ED91FD916D013097B9F08881811112C007
:1002A00011110AC060916A0070916B0080916C001E
:1002B00090916D00099503C08AE690E00995F701D9
:1002C000808101C0815088831F5FFFEFEF1AFF0A12
:1002D00021961430E1F680916A0090916B00A09114
:1002E0006C00B0916D000196A11DB11D80936A0054
:1002F00090936B00A0936C00B0936D00FF91EF9111
:10030000DF91CF91BF91AF919F918F917F916F912D
:100310005F914F913F912F911F91FF90EF90DF9050
:10032000CF900F900FBE0F901F90189560E18FE750
:1003300090E0C7DE11E0C0E080E6E82E80E0F82E15
:10034000D0E0F70161917F018C2F8D0F25DFC9DE91
:10035000DF5FD830B1F7C10F41F460E088E08C0F67
:100360001BDFC11109C011E007C060E08FEF8C0FE7
:1003700013DFC83090F31FEF83ED90E30197F1F79F
:1003800000C00000D9CFFB01DC0102C001900D923A
:0C03900041505040D8F70895F894FFCF7A
:0A039C003C4295A1A195423C610589
:00000001FF
